:020000040000fa
:10000000f83f0020296e0000174e00009f530000ab
:1000100000000000000000000000000000000000e0
:100020000000000000000000000000000f4700007a
:1000300000000000000000000f4700000f47000014
:100040000f4700000f4700000f4700000f47000058
:100050000f4700000f4700000f4700000f47000048
:100060000f470000d5430000e94900007d4800002b
:10007000114700000f4700000f4700000f47000026
:100080000f4700000f4700000f4700000f47000018
:100090000f4700000f4700000f4700000f47000008
:0c00a0000f4700000f4700000f47000052
:020000040000fa
:1000ac00f8b5c046f8bc08bc9e467047096e000007
:1000bc00f8b5c046f8bc08bc9e467047e16d000020
:020000040000fa
:0800cc00ba540000010000001d
:020000040000fa
:1000d400f0b5d6464f464646c0b5e2b0cc4b1a788a
:1000e400072a00d91be39300ca4ad3589f46002627
:1000f400c94fca4d603500f086fdc84d60353de3fb
:100104000026c54fc54d6035a7e2c44d603500f0eb
:1001140006fec34b1b78002b03d0bd4b01221a7083
:10012400fde2c04b1a78052a00d9f8e29300be4ad2
:10013400d3589f46bd4b9846bd4c2034d0e0bd4dae
:10014400bd4c3fe0bb4dbd4c2de18223db0580223d
:1001540012059a61b74db94c03e0fa21b74806f08d
:10016400a7fefa222900200007f0aefa0028f4d0f6
:10017400fa20400007f042fab14b1c68200007f057
:100184008ffb02002100ad4807f09efa002805d03d
:10019400fa220021a94807f07bfbc0e29f49a94b42
:1001a4000093a94b32aa7031a44807f0fefa32201a
:1001b40007f024fa9b4b01221a70e9e7fa219e48c2
:1001c40006f054fefa222900200007f07dfa0028e8
:1001d400f4d09e4e984d08e0fa220021964807f08c
:1001e40057fbfa21944806f041fe3468200007f0da
:1001f40057fb02002100280007f066fa0028ebd123
:10020400fa30400007f0faf984498b4f904b07937a
:100214000dab06938f4e05960eab049312ab03936e
:100224008d4c02940fab01938c4d00950cab32aa0c
:100234007c31380007f0b9fa322007f0dff928687a
:10024400696806f033fd286069602068616806f01b
:100254002dfd20606160fa220021380007f018fbb0
:100264003368072b00dc5ae26e4b02221a7056e206
:10027400794f3b687c6808930994784e30687168bc
:10028400704d2b686c68029303946f4c226863680a
:1002940000920193089a099b04f0bcfd704b18600e
:1002a40059603a687b68306871686e682d68029599
:1002b4000396656824680094019505f021fc694b58
:1002c40018605960574b03221a7028e2554b0422d8
:1002d4001a706421644806f0a9f8322007f08ef9f8
:1002e40043461e685f68002200233000390007f08f
:1002f400a9f8002808d100225c4b3000390006f030
:1003040001ff002800d10ae2594efa22310059486f
:1003140006f092ff454d2a002100300007f045fa0f
:10032400322007f06bf90022504b2868696806f008
:10033400e9fe0028cad064214f4806f077f84f48f8
:1003440007f05cf9cce7fa213b4806f08ffd3468ee
:10035400200007f0a5fa02002100280007f0b4f9f4
:100364000028f0d132a912a805f080fc041e04dc98
:10037400013f002f0cd0304de9e7010032a805f011
:100384000df83f4b18605960f2e70c273d4ef2e739
:10039400002c00dcc3e1234b05221a70bfe1fa21d3
:1003a400264806f085fdfa222900200007f08cf982
:1003b4000028f4d064223449204807f085f9002845
:1003c4000dd0174b01221a70f93200211b4807f097
:1003d4005ffa8223db05802212055a619fe16421c2
:1003e4002a4806f023f8322007f008f9e9e7284bf9
:1003f4001b78002b06d0012b00d090e1074b603313
:100404000893bbe00026194f044d603555e0c04603
:10041400f70100207472000000002440485a0000d4
:10042400f2020020f302002094720000b0050020c4
:10043400c85a000000000020f8010020fc00002041
:10044400640700209805002090050020680700201c
:10045400800500207c050020c0050020b805002090
:10046400a8050020a00500209c06002000000840ec
:10047400f4020020c702000038060020b80b000078
:10048400880500206c07002000070020d405002008
:10049400ee0300200022c44bc44c0020c449049045
:1004a400059102920393009201932900200007f022
:1004b40071f96421200005f0f3ff05f081fc089038
:1004c400099132003b00bb490868496803f09cfe6f
:1004d40002000b000898099906f00cfd0028d9d1f8
:1004e4000022b14bb449b14c049205930292039398
:1004f400009201936031200007f04cf96421200040
:1005040005f0ceffad4b01221a7008e132a912a802
:1005140005f0acfb002813dc013c002c1bd0a84eda
:100524003d68280007f0bcf902002900300007f0fc
:10053400cbf80028ead0fa21a14806f097fcefe7af
:10054400010032a804f02aff9e4b18605960e3e7cb
:100554000c249d4fe3e70022934b944d04920593a2
:1005640000209a490290039100920193089928006f
:1005740007f010f96421280005f092ff944b1e68df
:100584005f68904b1c685d6800228023db053000a7
:10059400390007f06df922002b0006f0cdfc00288d
:1005a400d6d100228023db053000390003f02cfe75
:1005b40002000b002000290006f0befc002801d038
:1005c4000c24c6e70022784b7b49784c04920593af
:1005d40002920393009201936031200007f0daf84d
:1005e4006421200005f05cff794b1c685d68754b45
:1005f4001e685f6800228023db052000290007f0c5
:1006040037f932003b0006f09cfd00280ed1002291
:100614008023db052000290003f0f6fd02000b0017
:100624003000390006f08dfd002878d0694b022295
:100634001a7074e000225c4b5c4c00206649049004
:10064400059102920393009001912900200007f084
:10065400a1f86421200005f023ff05f095f932008c
:100664003b0006f04ffd0028e4d100265b4f524dbd
:10067400603512e000224c4b4c4c0020534904904e
:10068400059102920393009001912900200007f044
:1006940081f86421200005f003ff05f075f93200ac
:1006a4003b0006f027fc002808d005f06df9002275
:1006b4008023db0506f040fc0028dbd1484e494f7f
:1006c4003d4d603512e00022374b384c002046493e
:1006d4000490059102920393009001912900200057
:1006e40007f058f86421200005f0dafe05f04cf913
:1006f40032003b0006f020fc002808d005f044f945
:1007040000228023db0506f0f5fb0028dbd105f091
:100714003bf9334a334b06f014fd002805d162b08f
:100724001cbc90469946a246f0bd00221e4b2249ad
:100734001e4c04920593029203930092019360313c
:10074400200007f027f86421200005f0a9fe214bc2
:1007540003221a70e3e70022134b144c00202349b0
:1007640004900591029203930092019329002000c2
:1007740007f010f86421200005f092fe05f020fb3c
:1007840006000f0000221a4b0a490868496803f062
:100794003bfd02000b003000390006f0b3fc0028da
:1007a400d9d1054d603538e000709740f003002042
:1007b40000589b4080050020485a0000ee030020aa
:1007c400f8010020880500206c07002000009940f3
:1007d400a8050020f701002000909a400000244062
:1007e4009a9999999999c93f003898400050944032
:1007f4000000f03f0022dd4bdd4c0020dd49049079
:10080400059102920393009201932900200006f0bf
:10081400c1ff6421200005f043fe05f0d1fa060073
:100824000f000022d44bd5490868496803f0ecfc5a
:1008340002000b003000390006f05cfb0028d9d11f
:1008440005f0befa04000d00cd4ace4bcb49086832
:10085400496803f0d9fc02000b002000290006f0cf
:1008640070fc002800d15ae70022c04bc64dc04c92
:100874000020c649049005910292039300920193cb
:1008840029006031200006f085ff6421200005f076
:1008940007febf4c200006f0b1fe200006f0aefebd
:1008a400bc4b04221a703ae7bb4b1b78002b06d0d2
:1008b400012b00d033e7b94fb94e203651e0b94b84
:1008c40099461c685d68b84b98461e685f6805f0d9
:1008d40021fe4b461860596005f032fc434618600f
:1008e4005960b24b9a461c605d60b14c26606760eb
:1008f40005f066faa14b186059604b4618685968b0
:1009040043461a685b6855462e686f6865682468b4
:1009140002940395009601970a920b93089009910b
:1009240005f0eef8a34b1860596002940395009605
:1009340001970a9a0b9b0898099904f06bfa9e4b4d
:1009440018605960944b01221a70e8e69b4cfa2215
:1009540021009b4806f070fc904a3100200006f00c
:1009640024ff3c687d68002200232000290006f053
:1009740069fd0028ead10022924b2000290006f0ec
:10098400c1fb0028e2d1323006f038fe00228d4b44
:1009940082490868496806f0d4fb002800d1bee605
:1009a4007c4b05221a70bae6874b1b78002b06d0c5
:1009b400012b00d0b3e6744b6033089378e0002633
:1009c400804f714d603512e00022684b684c002066
:1009d4007e490490059102920393009201932900a9
:1009e400200006f0d7fe6421200005f059fd05f033
:1009f400e7f90890099132003b00604908684968aa
:100a040003f002fc02000b000898099906f072fa40
:100a14000028d9d10022554b5b49554c04920593cb
:100a240002920393009201936031200006f0b2fe1b
:100a34006421200005f034fd634b01221a706ee638
:100a440032a912a805f012f9002813dc013c002c8d
:100a54001bd05f4e3d68280006f022ff02002900eb
:100a6400300006f031fe0028ead0fa21584806f09a
:100a7400fdf9efe7010032a804f090fc554b186033
:100a84005960e3e70c24544fe3e70022374b384d19
:100a9400049205930020514902900391009201931e
:100aa4000899280006f076fe6421280005f0f8fc79
:100ab400414b1e685f68474b1c685d6800228023b9
:100ac400db053000390006f0d3fe22002b0006f0cf
:100ad40033fa0028d6d100228023db053000390008
:100ae40003f092fb02000b002000290006f024fa18
:100af400002801d00c24c6e700221c4b22491c4cc0
:100b040004920593029203930092019360312000b2
:100b140006f040fe6421200005f0c2fc264b1c6850
:100b24005d682c4b1e685f6800228023db05200073
:100b3400290006f09dfe32003b0006f002fb00286f
:100b44000fd100228023db052000290003f05cfb89
:100b540002000b003000390006f0f3fa002800d13f
:100b6400dde50c4b06221a70d9e5c04600709740ab
:100b7400f003002000e095400000f03f80050020d5
:100b84009a9999999999a93f485a000000889340e5
:100b940060ea0000f7010020fa000020b005002000
:100ba400c85a0000b8050020c005002090050020a8
:100bb40098050020a0050020a8050020f4020020cc
:100bc400c702000000000840fb00002000589b40c2
:100bd400f8010020880500206c07002000009940df
:100be4000022844b844c0020844904900591029295
:100bf4000393009001912900200006f0cbfd6421ad
:100c0400200005f04dfc04f0bffe32003b0006f06e
:100c140079fa0028e4d10026794f7a4d603512e044
:100c24000022744b744c0020774904900591029281
:100c34000393009001912900200006f0abfd64218c
:100c4400200005f02dfc04f09ffe32003b0006f06e
:100c540051f9002808d004f097fe00228023db0518
:100c640006f06af90028dbd1684e694f654d60359e
:100c740012e000225f4b604c00206649049005910d
:100c840002920393009001912900200006f082fd56
:100c94006421200005f004fc04f076fe32003b00e1
:100ca40006f04af9002808d004f06efe00228023e2
:100cb400db0506f01ff90028dbd104f065fe534a7a
:100cc400534b06f03efa002800d128e50022494b98
:100cd4004c49494c04920593029203930092019368
:100ce4006031200006f056fd6421200005f0d8fb99
:100cf400494b07221a7012e500223e4b3e4c00205d
:100d040046490490059102920393009201932900ad
:100d1400200006f03ffd6421200005f0c1fb05f032
:100d24004ff806000f0000223d4b3e490868496811
:100d340003f06afa02000b003000390006f0e2f911
:100d44000028d9d12f4d603512e00022294b2a4cbe
:100d54000020354904900591029203930092019377
:100d64002900200006f016fd6421200005f098fb00
:100d740005f026f806000f000022294b29490868cf
:100d8400496803f041fa02000b003000390006f014
:100d9400b1f80028d9d105f013f804000d001b4a5e
:100da400224b20490868496803f02efa02000b0020
:100db4002000290006f0c5f9002800d1afe4002284
:100dc4000c4b104d0c4c00201949049005910292d3
:100dd40003930092019329006031200006f0dafcad
:100de4006421200005f05cfb124806f007fc05f0c6
:100df4001bf994e400709740f003002000909a409f
:100e040000002440485a0000000099409a9999999a
:100e14009999c93f00389840f70100200050944048
:100e24000000f03f8005002000e095409999a93f1b
:080e3400008893401027000024
:020000040000fa
:100e3c00f0b5be4c0125a544109300230400080016
:100e4c0008920693302855d02e287ad1e36be26ca9
:100e5c0093425cd25a1ce2631878002200230127cb
:100e6c0002920393302856d00123099300230022c9
:100e7c001e0015001f001293049301930300303bd6
:100e8c00092b64d92e2864d0099b002b01d1029523
:100e9c000396069b002b00d1bbe320230343652b59
:100eac0000d0cfe39999200003f04efe00280fd11b
:100ebc0080231b0699420bd1999b002b00d1b7e3e1
:100ecc00e36c00200021002b02d0e36b013be363b9
:100edc00029b039c1b184c4102930394129c002c04
:100eec0000d085e0989806f0c1fb0022002303f0a7
:100efc005ffba3e3e36be26c934204d25a1ce26304
:100f0c00187806959ee7200005f028fdf9e72000eb
:100f1c0005f024fda1e701225242d3170298039950
:100f2c0080185941e36be26c02900391934204d216
:100f3c005a1ce2631878069794e7200005f00efd22
:100f4c00f9e7002300220993029203938ee72e28df
:100f5c000ed1099b002b49d10295039601330993bd
:100f6c00e36be26c93423dd25a1ce263187885e73e
:100f7c00019a7c2a21dc290032000125002649191e
:100f8c0072410d001600302800d00491002f06d0bd
:100f9c00019a12a9920052580a214a43d318019a75
:100fac0012a992005350012301370693092fd7d170
:100fbc00019b002701330193d2e72a00330001255e
:100fcc0000265219734115001e003028c8d0f82293
:100fdc000121520012ab9b580b4312a98b50544b5e
:100fec000493bde7200005f0b9fc47e72e2050e73d
:100ffc00029a95421bd1039a964218d1002e16dc08
:10100c0001d1092d13d8089b1e2b03dc2300089a51
:10101c00d3400cd1989806f029fb060020000f0055
:10102c0006f032fb02000b00300039005fe7109b2a
:10103c00109adb0f9b185b1003995b42da179142f5
:10104c0003dc11d1029a9a420ed92222394b98987c
:10105c001a6006f00bfb0122374b524203f0a8fa40
:10106c000122354b524242e7109b03996a3bda1737
:10107c008a4203dc11d1029a93420ed922222d4bc3
:10108c0098981a6006f0f2fa802300225b0303f0b2
:10109c008ffa802300225b0329e7002f07d00a2157
:1010ac00019b9a00082f19dd019b01330193049bce
:1010bc00029e082b66dcb34264dc112e62dc092e26
:1010cc0014d1129806f0e0fa0d000400989806f07e
:1010dc00cdfa02000b002000290008e712abd35810
:1010ec0012a806934b4301371350dbe7082e27dc7d
:1010fc00129806f0c9fa040098980d0006f0b6fa9a
:10110c0002000b002000290003f052fa08230b4abe
:10111c009b1b9b00040098580d0006f0a7fa0200d8
:10112c000b002000290004f069fb87e2b4fdffffef
:10113c005c040000cc050020ffffef7fac720000c8
:10114c003300093b9a009b1a089a9b181e2b02dc51
:10115c00129ada4016d1129806f096fa0400989872
:10116c000d0006f083fa02000b002000290003f0aa
:10117c001ffa33008e4a0a3b9b0004000d0098585e
:10118c00a5e70193019b12a9013b9a005258002a32
:10119c00f7d00921300004f005fe0f1e1bd0002ee5
:1011ac0000da093708230024db1b814a9b009b587b
:1011bc0012ad099304940294029b019a93420dd1af
:1011cc00002c05d0930012aa9c50019b0133019373
:1011dc00f61b049f09360023029380e028680999c6
:1011ec0004f0a0ff03190e912b6009997148069326
:1011fc0004f08efd0e9c029b049a4443934208d14a
:10120c00069b002b05d17f22029b093e01331a401d
:10121c000492029b043501330293cde7029b002517
:10122c001d3b0293019b5c1e7f231c4012aaa30052
:10123c009b580022d9085b070b910d920a930c95d1
:10124c000a9a0b9b0c980d9912184b41049205931a
:10125c00059b002b04d1049b1a00564b9a421ed9b5
:10126c0004980599534a002305f028ff514a0500bc
:10127c0004980599002305f021ffa30012a95a50e8
:10128c007f21019b013b0b40a3420bd1bc4269d097
:10129c00002a00d101947f23013c1c40c6e7049a2c
:1012ac00059deae7bc42f6d1002d18d07f22013f04
:1012bc001740019a0936ba420ed17f215a1e0a40b4
:1012cc00920012a810589900019012a80958019880
:1012dc000193014312a81150bb0012aa9d50112e6c
:1012ec009cdd122e05d1bb0012a9334a5b589342e8
:1012fc0094d97f22019b9f4213d012a9bb005b584b
:10130c002d498b420dd92d498b420cd101997b1c57
:10131c001340994205d09b0012a829491b588b42b7
:10132c0001d8122e4ed001211b2e00dd0831029b5c
:10133c0000205b18029301238b40013b04931d4b4f
:10134c000b4106933b00019ca3420dd10028d1d048
:10135c00230001331340bb421ed0a10012ac6050dd
:10136c000193c7e73b009fe79c00250012ac2c596a
:10137c00a446cc40241812a82c506046049d28404a
:10138c00069d6843bb4204d1002c02d15f1c174060
:10139c00093e01331340d6e70120019b12a9013b02
:1013ac0013409b00c9580491014312a8c150a1e7f6
:1013bc00ac72000000ca9a3b5e7089005f708900b5
:1013cc00ff092f0f019b9f4209d17f237a1c1a40e2
:1013dc00130001920022013b9b0012a9ca50bb00d2
:1013ec0012aad05806f050f90022002302f008ff90
:1013fc007f23019a7e1c1e40964208d101321a406e
:10140c00130001920022013b9b0012ace25000221f
:10141c008e4b03f0cdf804000d0012abb600f05863
:10142c0006f032f922002b0002f0eafe04000d0057
:10143c00989806f01bf922002b000690079103f0f8
:10144c00b7f8029b109a353311939b1a089a0a909d
:10145c000b910c93934200dbbde0002b00dabee055
:10146c00049301230993049b342b00ddbce0692217
:10147c00049b0020d21a764905f072fb0a9a0b9b4a
:10148c0006f01afa3522049b0e900f91d21a002006
:10149c006f4905f065fb02000b000a980b9906f0ea
:1014ac0055fa02000b0004000d000a980b9906f087
:1014bc00dbf902000b000e980f9902f0a1fe0a90c6
:1014cc000b917f21019bba1c0a409a4234d09200a6
:1014dc0012abd3585f4a934200d98ce0002b04d155
:1014ec00019afb1c0b4093420dd000225a4b0698dc
:1014fc00079903f05df802000b002000290002f0b0
:10150c007ffe04000d003523049a9b1a012b13dd7a
:10151c0000224f4b2000290006f018fa002200236d
:10152c0005f08cff002807d0200029000022484b32
:10153c0002f066fe04000d000a980b99109b089aa5
:10154c005b429b1a019322002b0002f059fe0e9a6b
:10155c000f9b06f089f9019b06005a1e119b0f0088
:10156c005b005b089a4230dc06f0ecf900223b4b46
:10157c0005f0defc002814d0099b002b06d0049a41
:10158c000c9b9b1a1a00531e9a410992344b300043
:10159c003900002203f00cf806000f00029b013307
:1015ac000293019a029b0332343393420ada099b69
:1015bc00002b0ad0002200232000290005f03eff5a
:1015cc00002802d12222274b1a60029a30003900df
:1015dc0006f0b4f932e0089b0493002342e70123a0
:1015ec0009930023049342e70024002325000e9363
:1015fc000f941c0065e71c4a934202d000221b4b3f
:10160c0075e7019afb1c0b409342f7d10022144b57
:10161c006de7002809dbe36c002b02d0e36b013b88
:10162c00e363069b002b00d058e416220d4b1a6086
:10163c000021200006f060f80020002193239b007d
:10164c009d44f0bd0028e6da48e4c04665cdcd41a6
:10165c000000f03fff64cd1d0000d03f0000404370
:10166c000000e03fcc0500200065cd1d0000e83fe8
:020000040000fa
:10167c00f0b595b004000492022900d9dae0b34b1e
:10168c005a1c5218d27f490052b259181292242275
:10169c008b5e0a93e36be26c93422fd25a1ce2638b
:1016ac001d78202df6d02b00093b042bf2d90122fa
:1016bc002b2d28d0069202232d2d25d00027a34eaa
:1016cc002a362023ba5d2b4393422cd0032f03d010
:1016dc0044d9049b002b4cd0e26c002a02d0e36b63
:1016ec00013be363049b002b2bd0032f29d0002a52
:1016fc0002d0e36b013be363013ff6e7200005f00a
:10170c002df90500cde70023d31a0693e26ce36ba9
:10171c00934203d25a1ce2631d78cfe7200005f0f8
:10172c001df90500cae77b1c0293072f09d0e36b58
:10173c00e26c93420dd25a1ce2631d78029f082f73
:10174c00bfd1069b0020013300d1abe2804915b01c
:10175c00f0bd200005f002f90500efe7002f08d1dd
:10176c007a4e33362023ba5d2b43934208d0002f98
:10177c006bd0e36c002b56d0e36b013be36352e080
:10178c007b1c0293022f09d0e36be26c93420dd2c7
:10179c005a1ce2631d78029f032fe3d1e36be26cca
:1017ac00934208d3200005f0d9f807e0200005f09b
:1017bc00d5f80500efe75a1ce26318782838431e69
:1017cc009841c0b201252026002809d0e36c002bdb
:1017dc0002d100205f49bae7e36b013be363f8e712
:1017ec00e36be26c93420fd25a1ce263187803004d
:1017fc00303b092b06d90300b343413b192b01d9cc
:10180c005f2805d10135ebe7200005f0a7f8eee7de
:10181c002928ded0e26c002a02d0e36b013be363a3
:10182c00049b002b0ed116224b4b1a60002120007a
:10183c0005f062ff0020002189e7002a02d0e36b4b
:10184c00013be363013df8d2c3e7129b0b93302db0
:10185c0000d01ce2e36be26c93424cd25a1ce26364
:10186c0018782023e26c0343782b00d00ae2e36b58
:10187c00934244d25a1ce2631878002301250f933b
:10188c00302840d02e284bd00022002308920993f8
:10189c000e93002300221393304b002510921193ca
:1018ac0000230026029203930300303b0c93092b78
:1018bc006ad920230343613b052b65d92e2865d0bb
:1018cc000f9b002b00d0cce0e36c002b00d1ebe1a4
:1018dc00049ae36b002a00d1bce00e9a002a00d0d7
:1018ec00b6e0023be363069805f0c0fe002200233d
:1018fc0002f05efe2be7200005f030f8b1e7200087
:10190c0005f02cf8b9e7e36be26c934204d25a1c55
:10191c00e26318780f95b3e7200005f01ff8f9e79c
:10192c00e36be26c93420dd25a1ce26318780022ee
:10193c00002301256d42ee170892099330280fd031
:10194c000123a5e7200005f009f8f0e7ac720000d0
:10195c000000f07f0000f87fcc0500200000f03f75
:10196c00e36be26c93420bd25a1ce2631878089a30
:10197c00099b521973410892099301230f93dde7d8
:10198c00200004f0ebfff2e72e2813d10e9b002b66
:10199c0000d08ee10c950d9601330e93e36be26c47
:1019ac00934251d25a1ce2631878089509960c9d03
:1019bc000d9e79e7392803dd20230343573b0c9315
:1019cc00002e2adc01d1072d0dd80c9b3f01df190d
:1019dc000122002352197341089d099e0c920d930c
:1019ec0001230f93dae70d2d17d8109811990022c7
:1019fc00b34b02f0ddfd109011910c9805f036fe02
:101a0c00109a119b02f0d4fd02000b00029803996e
:101a1c0002f0f6fb02900391dae70c9b002bd7d077
:101a2c00139b002bd4d1109811990022a54b02f0d6
:101a3c00bffd0b0002000298039902f0e1fb0123a9
:101a4c00029003911393c3e7200004f087fface7e7
:101a5c00033b47e7013be3630021200005f04cfe0c
:101a6c0041e70e9b002b01d108950996012200231a
:101a7c0002e0ad185e413f01002e02dcf9d1072dca
:101a8c00f7d92025284370280dd10499200003f0a4
:101a9c005bf800280fd180231b0699420bd1049bc5
:101aac00002b00d1c2e6e36c002b02d0e36b013bb0
:101abc00e36300200021002f00d114e7089a099b52
:101acc0008246442e51712196b411400960f9b0011
:101adc003343a20012184b41049205930a9b0599bb
:101aec005b42da17914203dc11d1049a9a420ed967
:101afc002222754b06981a6005f0b8fd0122734b33
:101b0c00524202f055fd0122704b5242f0e60a9b04
:101b1c0005996a3bda178a4205dc00d0a8e0049ae2
:101b2c00934200d8a4e02222674b06981a6005f075
:101b3c009dfd802300225b0302f03afd80230022ee
:101b4c005b03d5e60022029803995e4b05f0f0f991
:101b5c007f00002800d186e00298039900225c4b9c
:101b6c0005f082fe013702000b000298039902f087
:101b7c0047fb049a059b12196b4102900391049246
:101b8c000593002fdeda04980599129b2022dc17ae
:101b9c00002312184b410a98c117121a8b419c4210
:101bac0003dc08d11299914205d9049b0a9a9b1a1d
:101bbc0020330b9360d40b9b342b60dc54220b9b97
:101bcc000020d21a424904f0cbff040006980d0005
:101bdc0005f04cfd0b0002002900200005f06cfe06
:101bec000b9b04000d001f2b0edc029803990022a6
:101bfc00002305f023fc002806d1fb0704d40022a7
:101c0c000023029203930137069805f02ffd029ae8
:101c1c00039b0690079102f0cbfc029003913800d5
:101c2c0005f032fd069a079b02f0c2fc22002b0045
:101c3c0002f0e6fa029a039b02f0e2fa22002b0071
:101c4c0005f012fe0022002304000d0005f0f6fb47
:101c5c00002802d022221c4b1a60049a2000290072
:101c6c0005f06cfe73e5029a039b100019007ee7e9
:101c7c0001246442e51784e700230b939ee70024bc
:101c8c000025c1e7002a02d0e36b013be363049b10
:101c9c00129a0193069b2900009320000a9bfff7e0
:101cac00c7f854e50b4952e5049b002b00d01ae60b
:101cbc00d2e60f9b2e20002b00d0d7e604e6c046c0
:101ccc000000b03f0000e03fcc050020ffffef7f9d
:081cdc000000f03f0000f0ffe2
:020000040000fa
:101ce400f0b59bb013930b6815900d934b6812914c
:101cf40004938b680e930b691893cb68069313684f
:101d04000b9353680b98089300220023089905f05d
:101d140018fa00280dd10d9b5b073ad408200d9bbf
:101d240003400c930e9b07930c9b002b0fd0202396
:101d340006e0802212069446089b634408932d23f0
:101d4400069a13700e9b013b079301230c93089b87
:101d54000b995b005b08984a00291ed193421cd161
:101d6400069c139ba4460c9a413b62449349100081
:101d7400192b10d805f0cefd069805f091fd0d9baa
:101d84000200009306990e9b159804f0d7fa1bb035
:101d9400f0bd2b23d4e70431ece7934203d810d1f0
:101da4000b9b002b0dd0069c139ba4460c9a413b25
:101db400624482491000192b01d80831dae70c314a
:101dc400d8e7002200230b98089905f03bfb002676
:101dd4007b4f002833d000230393139805f080fd34
:101de400c3b20f93049b002b00dae8e10f9b0a9324
:101df400672b00d0f1e0049b002b00d1dae1039bb8
:101e0400043304db039b049a934200dae0e0652385
:101e1400f9e026002f00039b013303930022694b52
:101e24003000390002f0c8fb0b9a089b04000d0037
:101e340005f068f90028ecd00024012524e0039083
:101e4400ece7039b1a00604b9a4212da002c10d183
:101e540000225e4b0b98089902f0aefb00220b9017
:101e6400089130003900594b02f0a6fb2c00060003
:101e74000f00544b30003900002203f0c3fc06006d
:101e84000f00039b013b039332003b000b9808991e
:101e940005f057f90028d4d19fe7002300241093bc
:101ea4001194fee0089609970a9b039d652b00d0c8
:101eb40019e1002517e1002f0ad1002d08da2e239d
:101ec400069a149901365354079b0137013b079333
:101ed400a21933009446302102e0069ad15401330a
:101ee4009c45fad1079aa319141b069a30305e1c3c
:101ef400d054631e0793002421e0129b14961b699f
:101f04000493053bb34200d8f7e0089a099b0b9869
:101f1400109903f077fc03f04ffe0490059105f04f
:101f240015fa092800dd092010230d9a13400343f4
:101f3400c1d10f9b672bbed1002dc9da013480209b
:101f44000006844610990b9a61440b000498059985
:101f540000920193089a099b05f0bafc80231b06a2
:101f6400cb180b901093089809990022154b03f095
:101f740049fc013d08900991bbe00d9bdb0600d4b0
:101f8400bee02e23069a93550136b9e00398390032
:101f940003f00cff069b3031013c195503983900be
:101fa40003f0bafe079b0390013b0793bfe0069a38
:101fb400125c1a540138ede00000f07f84780000d0
:101fc4000000f03f00002440d4feffff0000504317
:101fd400039b002b16da66230a93049b01330493b4
:101fe4000a9b662b10d1039b002b03da00230026e7
:101ff400764f03930f9b672b04d0039a049b94465c
:102004006344049366230a930023109611970b9d4f
:10201400089c1493109a119b2800210003f0f2fbf2
:1020240003f0cafd1690179105f090f980212a005b
:102034000906631819900092019316981799109a3b
:10204400119b05f045fc80231b06cc180022604b35
:1020540005001098119903f0d5fb149b1090119171
:1020640001331493149a049b9342d3d10022594b05
:1020740002f0a2fa1090119102000b002800210036
:1020840005f05ff8002800d007e7109a119b28009c
:10209400210005f0d7f9002803d0199bdb0700d4f1
:1020a400fbe6109a119b0b98089902f0adf80022f8
:1020b4000b901091464b3000390002f07dfa0b9ad8
:1020c400109b0890099104f015ff002800d1e9e65f
:1020d400039b013303930a9b662b00d0e4e6049b25
:1020e400039d0133049300242700049b0c9eeb1ae8
:1020f4001693169b9d4200d0ffe6002f00d13ce7cb
:102104000025069b9b1904931d700a9b652b31d1f6
:10211400189b5c1e069b1d55039bab4202da5b4277
:102124000393013503230a27189a9b1a0893039be8
:10213400002b00d02ae7089b1b19002b00dd25e7a4
:10214400621e2d23002d00d1023b0699023c8b54c4
:10215400139b413b192b01d845230a93069b19195c
:102164000a9b0b70079b023b0793a64202da049872
:1021740005f0d0fb03230d9a1340022b00d0fbe59e
:10218400079b002b00dcf7e5069805f089fb069b0e
:10219400079a9b180c9a824200dc08e71300069aff
:1021a4003021944663441800079a05f071fb00231c
:1021b4000e93e1e50123049321e60623fbe70f9b3d
:1021c400672bfad00a930623049306e70000f03f36
:0821d40000002440000014404b
:020000040000fa
:1021dc00f0b557464e46de4645460c00e0b51f00ae
:1021ec0003008db002900391160000930194002817
:1021fc0000d13fe134003d00a4197d4121002a00ab
:10220c00c64bb146ba4604910592ab4200d32ee1bf
:10221c00009c019d200029000019694183468846d5
:10222c0099422ed9be4b994230d9019bbd4a5b00d5
:10223c005b0d013b934200d9e2e07b005b0d013b5f
:10224c00934200d9dce03000390005f07bf8804681
:10225c0005f00cfa814500d19be00298039900220d
:10226c00002304f06aff002800d180e00024ae4d6a
:10227c00200029000db03cbc90469946a246ab46c6
:10228c00f0bd002f02da2222a84b1a60019b002b12
:10229c00cbdaa34b059a9342c7d3a54a7b0094464d
:1022ac005b0d6344332b00d9eae03422d21a9446f6
:1022bc00203a099200d555e100210022069107929f
:1022cc000122099952428a400792012261465242e8
:1022dc008a400692069c079d200029008022001946
:1022ec006941340052033a438a43099984432500d7
:1022fc00002900da2ae11000c8400a90604611005b
:10230c00c14020200b91190040420c1800d5fde073
:10231c002a00a24011002a009a40100000184941de
:10232c000a9b0b9a03430a93069b079c1d002300f0
:10233c003b400a43190080233540d2022800d20ac0
:10234c005b039a4205d800d0aee00a9b002b00d16b
:10235c00aae0099c002c00da15e10125a5402b0010
:10236c0001246546ac402200801859419ce0009b3a
:10237c00019c18006300590801f06efd02000b006f
:10238c003000390002f014f901f070fb04000d006c
:10239c006ee78a4500d060e780231b06984500d184
:1023ac005be74346002b00daace00027002b5ed045
:1023bc003b0000244746012698465e4d3e4207d01e
:1023cc00029a039b2000290002f0f2f804000d0091
:1023dc007f080cd14746002f00d149e722002b0083
:1023ec000020544903f00afa04000d0040e702985b
:1023fc00039902000b0002f0dbf802900391dde779
:10240c004d4b98452bd827d00499059a4a4b9342ab
:10241c006fd36bd0414b984555d83000390004f040
:10242c0091ff804605f022f9814500d015e78a45d9
:10243c0000d012e75346002b00dae7e0002200241c
:10244c0000254346db0700d412e7019b0024db0f79
:10245c00db0753401d000be75b46002bd4d0029cde
:10246c00039d05e7354b019a9a4200d099e0002470
:10247c00304dfde62f4b019a9a4200d0bae6eee7ba
:10248c0080223000d200390093420dd9049805996e
:10249c0000222b4b121a8b41da17264b00201a40c4
:1024ac00fb0fdb071a43110002000b003000390050
:1024bc0004f0c4ff002800d0b7e621221b4b0024f7
:1024cc001a60194dd4e6009b002b73d04b46002ba1
:1024dc0060d0019b1b4a5b005b08934200d892e0e2
:1024ec00009b002b08d00024174dc1e6049b002b49
:1024fc0090d034003d00bbe6104b019a9a42b6d006
:10250c000024f1e75b429846012751e720212c007b
:10251c009a40c91acc4011002143fce6ffff1f0072
:10252c00ffffdffffd0700000000f87fcc05002057
:10253c0001fcffff0000f03f0000e0ff0000f0bfd7
:10254c000000c07fffffef3f0000f07f60462021be
:10255c00091a10008840010020006446e04008433e
:10256c000a90cbe662462021891a012252421000c1
:10257c00c840010060468240002400250a430694ae
:10258c0007950792a1e62023624601249b1adc40a2
:10259c002300e5e6234b9a459bd1009b002b00d1f1
:1025ac0060e7019b204a5b005b08002493429bd9a7
:1025bc0000255de61d4b019a9a421ed0194b9a429a
:1025cc0084d15346002b25db0023164c174d00936a
:1025dc00019400243000390004f0b4fe060005f02c
:1025ec0045f8814500d043e68a4500d040e6f30724
:1025fc0000d43de6009c019d3ae653460024002b96
:10260c00d6db0a4d34e60024002531e6074a0024c7
:10261c00064d16e780240023240600930194002520
:10262c000024d7e70000f0ffffffef3f0000f07f32
:020000040000fa
:10263c00f0b58bb0040001910292242901d8012934
:10264c0003d11622b84b1a6056e0e36be26c93424e
:10265c0024d25a1ce2631d78202df6d02b00093ba6
:10266c00042bf2d90222223b934300220392934281
:10267c000bd12d3d6b425d416b420393e26ce36bde
:10268c00934210d25a1ce2631d78019be26c002b22
:10269c000ed0102b55d1302d0cd052e0200004f070
:1026ac005df90500d8e7200004f058f90500ece7c7
:1026bc00302d44d1e36b934224d25a1ce2631d7833
:1026cc0020232b43782b2ed1e36be26c93421ed24a
:1026dc005a1ce2631d781022944b01925b5d0f2b08
:1026ec0000d8c7e0e36c002b00d1a9e1029ae36ba0
:1026fc00002a11d0023be36300260027300039008a
:10270c000bb0f0bd200004f029f90500d8e720003b
:10271c0004f024f90500dee7013be363002120000f
:10272c0004f0eaffe8e7019b002b00d1a0e0019b3d
:10273c000a2b00d09ee00023019f02931ce00a2389
:10274c0001937a4b01995b5d8b42f0d3002a02d046
:10275c00e36b013be3630021200004f0cdff70e745
:10276c00029ee36b7e43e26c7519303d02959342f9
:10277c0068d25a1ce2631d782b00303b092b03d81e
:10278c006b4b029a9a42ebd90027029e2b00303bee
:10279c000293092b33d8674b9f4213d802d1664b57
:1027ac009e420fd800230a223000390004f0e2fbcd
:1027bc00029b049300230593049bdb434a1c46d1e4
:1027cc00984244d9594b019a5b5d934217d2e36b03
:1027dc00e26c934200d318e15a1ce2631878534b15
:1027ec00019a1b5c9342f2d3109e119f22224e4bf6
:1027fc001a600123109a134201d000230393e36c57
:10280c00002b02d0e36b013be363119bbb4200d96d
:10281c000ce103d1109bb34200d907e10123109abc
:10282c00134200d0f5e0039b002b00d0f1e02222f4
:10283c0001267642f7173c4b1a60109b119cf61838
:10284c0067415be7200004f089f8050094e7e36b2f
:10285c00e26c049e059f36184f41934203d25a1cda
:10286c00e2631d7892e7200004f078f805008de70c
:10287c0008230193019b5e1e3340029300d0bce001
:10288c00019a173353432d4a1b065b0fd35c0493f9
:10289c00264b019a5b5d9a4203d9294a02999142cf
:1028ac002bd9049a01204042c11704f04bff00279a
:1028bc00029e089006911d4b5b5d0293029a019b50
:1028cc00934200d87ee7069b9f4200d97ae703d15a
:1028dc00089b9e4200d975e7049a3000390004f039
:1028ec003dff029be26c03431e00e36b0f0093421f
:1028fc0015d25a1ce2631d78dde7029e049a9640bd
:10290c00e26c1e43e36b0296934203d25a1ce263c1
:10291c001d78bde7200004f021f80500b8e7200081
:10292c0004f01cf80500c6e7cc0500209e52000000
:10293c00989999199999991999999999945200007a
:10294c00ffffff07029e019a5643f3180293e26cb5
:10295c00e36b93424cd25a1ce2631d783c4b019ab8
:10296c005b5d9a4203d93b4a02999142ead900270e
:10297c00029e374b5b5d0293029a019b934200d8f7
:10298c0020e7002f17d01a0000233000190004f0a4
:10299c00f1fa002304913a001900019804f0eafac4
:1029ac00049b089300230993089a099b80185941aa
:1029bc00002900d006e73b0032000198002104f00a
:1029cc00d9fa029b069300230793069bdb434a1c10
:1029dc0002d1984200d9f5e6069e079fe36be26ca4
:1029ec0036184f4193420bd25a1ce2631d78c0e754
:1029fc00200003f0b3ff0500b0e700230293ade71e
:102a0c00200003f0abff0500b3e7200003f0a6ffa6
:102a1c00e5e6119b9f4203d808d1109b9e4205d935
:102a2c00109e119f22220c4b1a6067e6039b013308
:102a3c0000d063e633003c0000275e42a7415de610
:102a4c00029b00260027002b00d057e666e6c04606
:0c2a5c009e520000c6711c07cc05002033
:020000040000fa
:102a68000023f0b504001600f1b007910893049311
:102a7800079b1b78002b67d0002309930a930b93bd
:102a88000eab0c93802307a920000d9304f0a8fc3b
:102a98000500079b1a78002a01d0252a41d1089af7
:102aa800551908951a78252a31d100255a1c0792fc
:102ab8000b955a782a2a02d10233079301350798d1
:102ac80004f0befa01000b90200004f017fe079beb
:102ad8001a78303a092a4dd907a804f04ffc079b09
:102ae8000700187804f0fafe672865dc652800db23
:102af800cce0612800d1c9e03fdc079b252800d144
:102b0800f3e05b2800d10ee1079b01330793039b99
:102b1800013300d0fae0049b002b15d1013b04934c
:102b280012e0e36be26c934211d25a1ce2631b7809
:102b38000393079b039a1b7893420fd0e36c002bf7
:102b480002d0e36b013be363049871b0f0bd200051
:102b580003f006ff030003900133ead1089b07a99d
:102b680001330893079b20000133079304f038fcd6
:102b78002d188ee701330793a9e7632800d199e060
:102b88006428c1d108ab09aa2ea9200004f086fc4c
:102b9800002800da65e1079b01330793002d00d078
:102ba800b4e03300012239002ea803f049fb051eca
:102bb80069da6b1cafd0c7e7702843d00bdc6e28ee
:102bc80052d031dc69289fd108ab09aa2ea9200070
:102bd80002f06ef8dce7752815d078282bd073281a
:102be80000d091e7802f00d08ee7079b0133079331
:102bf80000239d4203d133681a1d32601b6800937d
:102c0800012208ab6ce008ab09aa2ea9200004f049
:102c18005cfc002800da24e1079b01330793002db0
:102c280074d133002a00bee708ab09aa2ea92000f8
:102c380003f016f9ede708ab09aa2ea9200002f067
:102c480029fce6e708ab09aa2ea9200002f022fc1d
:102c5800002800da05e1079b01330793002d55d1c1
:102c680033002a00f0219fe7079b01330793089b55
:102c78002e93db172f93002d48d133002a003900fb
:102c88002ea803f0ddfa049b5b19f0e608ab09aa4d
:102c98002ea9200000f0c0fd002800dae1e0079b23
:102ca80001330793002d31d1320039002ea804f0ea
:102cb80021f87ce7802f00d026e70b9b0593002b9b
:102cc80001d101330b93079b0133079300239d42e6
:102cd80003d133681a1d32601b680022009308abc9
:102ce80009a9200003f00af961e7802f00d00be75b
:102cf80001330793e26ce36b934209d25a1ce263f7
:102d08001878252808d1089b013308930025bae7cd
:102d1800200003f025fef4e7e36c002bf6d0e36b0c
:102d2800013be363f2e7802f00d0ede60027bd42c8
:102d380003d13268111d316017685a1c07925a78fe
:102d480000255e2a02d102330793013502222900a9
:102d5800ff322ea804f09afda821002304aa5218d5
:102d68001370079b1a782d2a21d101330793012369
:102d7800a93204a95b1b5218137001232eaa5d1bec
:102d880007990b785d2b1cd10025af423bd1e36b33
:102d9800e26c934260d25a1ce2631b780393039a55
:102da8002eab9b185d78002d52d105953ae05d2a2f
:102db800e3d101330793012304aa07325b1bff32d7
:102dc800dae7002be0d02d2b07d0079b2ea8197827
:102dd800013341184d700793d2e7089b1b78002bed
:102de800f3d05d2bf1d04b1c0793069b1b784878da
:102df8008342eada01339d54f9e7039b7b55089b2c
:102e0800013501330893e36be26c059593421ad2be
:102e18005a1ce2631b780393039a2eab9b185b78ca
:102e2800002bead1e36c002b02d0e36b013be36398
:102e3800059b002b00d167e6002f00d164e6002334
:102e4800059abb5460e6200003f08afd0390e3e78f
:102e5800089b013308939ae7200003f081fd039053
:062e68009de70500a5e650
:020000040000fa
:022e6e007047ab
:020000040000fa
:102e7000600500201c000000000000003405002058
:102e80002c00000000000000a4040020300000001e
:102e900000000000d404002030000000000000000a
:102ea0000405002030000000000000008005002024
:102eb0000800000000000000880500200800000055
:102ec00000000000fa0000200100000000000000e7
:102ed000fb000020010000000000000000000020b6
:102ee000fa0000000000000090050020080000002b
:102ef000000000009805002008000000000000000d
:102f0000a00500200800000000000000f6010020dd
:102f10000100000000000000a805002008000000db
:102f200000000000f003002064000000000000002a
:102f3000b00500200800000000000000f70100209c
:102f40000100000000000000fc000020fa0000006a
:102f500000000000f8010020fa000000000000005e
:102f6000f4020020fa000000000000007c050020b0
:102f70000400000000000000f20200200100000038
:102f800000000000f302002001000000000000002b
:102f9000b80500200800000000000000c005002067
:102fa0000800000000000000ee0300200100000007
:102fb0000000000064070020040000000100000081
:102fc000fc5a000068070020040000000100000017
:102fd000f45a0000d4050020640000000100000045
:102fe00044657220466c75672073746172746574f1
:102ff000206a65747a74210000000000000000005f
:1030000000000000000000000000000000000000c0
:1030100000000000000000000000000000000000b0
:1030200000000000000000000000000000000000a0
:103030000000000000000000000000000000000090
:1030400000000000380600206400000001000000bd
:1030500044617320476577696368742069737420dd
:103060007a752073636877657221000000000000a4
:103070000000000000000000000000000000000050
:103080000000000000000000000000000000000040
:103090000000000000000000000000000000000030
:1030a0000000000000000000000000000000000020
:1030b000000000009c0600206400000001000000e9
:1030c0004469652044726f686e652069737420627c
:1030d0006572656974207a756d206162666c6965d8
:1030e00067656e2100000000000000000000000085
:1030f00000000000000000000000000000000000d0
:1031000000000000000000000000000000000000bf
:1031100000000000000000000000000000000000af
:10312000000000006c070020040000000100000007
:10313000ec5a0000000700206400000001000000bd
:1031400024464c59535441525400000000000000e2
:10315000000000000000000000000000000000006f
:10316000000000000000000000000000000000005f
:10317000000000000000000000000000000000004f
:10318000000000000000000000000000000000003f
:10319000000000000000000000000000000000002f
:1031a00000000000c805002004000000000000002e
:1031b000cc050020040000000000000054040020a2
:1031c0005000000000000000d005002004000000b6
:1031d00000000000000000000000000044444444df
:020000040000fa
:1031e0000023f0b506001500afb0059101930599d5
:1031f0000b78002b00d10fe101235b420a930eab49
:1032000000240c93802309940b940d930b5d002be9
:1032100001d0252b2ad1002c06d02200300004f04a
:1032200061f8059b1b190593059b1a78252a00d088
:10323000e7e0013302930593022310219c460827ff
:10324000059803782b2b1bd025d8202b1bd0232ba4
:103250001dd02a2b2ad003f0f7fe0b90059b1a787d
:10326000303a092a33d801330593f7e70134cde723
:103270000122099b80180393134309930590dfe70c
:103280000423099a0ee0099b03933b430be0099b3f
:1032900003930b4307e02d2bead0302bd9d16246a4
:1032a000099b0393134309930130e7e72b6801302f
:1032b0001a1d1b6805902a600b93002b07da099ae8
:1032c0005b420392012203990b934a400992099ba6
:1032d000da0702d5022293430993059b1a782e2a16
:1032e0000ed10022581c0a9205905a782a2a28d119
:1032f000023305932b681a1d1b682a6003930a93f7
:1033000005a804f03ff8059b0700187804f0eafad6
:10331000692800d183e035dc632800d1d6e01bdcce
:10332000252800d1dfe0612859d0252306aa137093
:10333000029b0593002309930b93013b0a930233ed
:10334000b2e003f081fe0a90059b1a78303a092a10
:10335000d6d801330593f7e7642860d06728e4dc0a
:103360002a00390006a804f00df9002800d1a9e0d0
:10337000059b09a95a1c05921b7806aa3000fef786
:10338000b1fc3de0702800d17de016dc6e2800d154
:1033900091e06f28c9d12b000022390006a802f065
:1033a00095fa002800d18de0059b06aa013309a9f2
:1033b0003000059303f006fe22e0752840d07828ff
:1033c0004fd07328b1d1802f00d07be0059b2a68b5
:1033d00001330593131d2b601268002364e02a005b
:1033e000390006a804f0cef8002800d16ae0059b59
:1033f00009a95a1c05921b7806aa300004f0b7faf6
:103400002418019b1c19a34200dc74e04f223b4ba3
:103410001a6001235b42019301982fb0f0bd2b008d
:103420000122390006a802f051fa00284ad0059b73
:1034300006aa013309a93000059303f0c3fddfe7b5
:103440002b000022390006a802f040fa002839d0eb
:10345000059b06aa013309a93000059303f0b2fdcc
:10346000cee72b000022390006a802f02ffa002830
:1034700028d0059b5a1c05921b7806aa09a9300082
:1034800004f075fabce72b000022f02106a802f038
:103490001dfa002816d0059b079a01330593069b59
:1034a000134306d1164a163209a9300003f088fbef
:1034b000a6e77823e1e7019b39001a1906a82b003b
:1034c00003f0d0f8059b013305939ae7802ff9d1db
:1034d000059b013305932b681a1d1b682a6006aaf9
:1034e00013700123e0e7802fecd1059b06aa01337e
:1034f00005931070f5e7019479e6c046cc050020ed
:04350000b0760000a1
:020000040000fa
:10350400f0b54e4657464546de469046e0b51600b1
:103514001f0002000b0012184b41b84a85b08146c7
:10352400934200d945e134003d000022a4197d41b5
:10353400b34b12196b41b34ca34200d939e100d10a
:1035440034e10023002400930194cb0fdb077c00bb
:1035540001934d006308c2460393cb466d089d4218
:1035640000d8b2e02b0d9c464ed080200903090bf5
:103574004003084303994a46090d0300894600297c
:1035840075d080253c03240b6d0325434046290058
:1035940066464f46e14500db16e114001d00241a7f
:1035a4008d41002d05db23002b4300d197e0220041
:1035b4002b00013e92185b41be42eed1b946140085
:1035c4001d00241a8d41002d05db23002b4300d15f
:1035d40085e022002b00802040030100184206d120
:1035e400484692185b4101381942fad0814649464f
:1035f4004c1e00d5eae00020210580185941009bab
:10360400019cc01861416ce02a1e00d19ee07e4bf3
:103614009d4200d9d0e018232a049946083b7b4cec
:10362400a24201d84b461202794ca24201d804337b
:103634001201784ca24201d802339200d243d20f35
:103644009a180b235b429c4694442b3a914600d52e
:10365400a2e005004c46a5402b00010060468140d5
:103664000a0041428c460399090d894689d1039881
:10367400011e3dd06448814200d9a1e0182009040c
:1036840080460838614da94201d840460902604d80
:10369400a94201d8043009015e4da94201d8023083
:1036a4008900c943c90f41180b2040428146203884
:1036b40089440d183ed43400ac4021004d463400fa
:1036c400ac4020006c42a14662e79d4202d1c14554
:1036d40000d947e7da4504d1039bab4201d10098f6
:1036e400019905b03cbc90469946a246ab46f0bd54
:1036f400454c40460825a24502d810213004103517
:10370400424ca04201d829000002414da84201d8f0
:10371400043100013f4da84201d802318000c0436a
:10372400c00f09180b2040428146203120388944bb
:103734000d18c0d5484620213500091acd40039cf8
:10374400a8468440210044462143b7e72e4c4b460b
:10375400a4460824a146e34503d81822030491464d
:10376400083a2a4ca34201d84a461b02284ca342d9
:1037740001d804321b01274ca34201d802329b001a
:10378400db43db0fd2180b235b429c46203294446c
:103794002b3a914600d45ce76246202364469b1a88
:1037a400a5400200da402b00134356e7002a00d15b
:1037b400c7e60020184994e70823994600232ee71a
:1037c4000820804600205de7e146f8e648460121ee
:1037d400091a20204042081807d41c00c4402000c5
:1037e400cb4002000021002007e720201c00401ae3
:1037f40084401000c8402043f2e7c046ffffdfffcb
:103804000000e0ff0000c0ffffff0000ffffff001b
:0c381400ffffff0fffffff3f0000f87fe9
:020000040000fa
:10382000f0b51d00d3688db01769039304000991aa
:10383000966803f0a7fc2b68013f18182860002e3b
:1038400000d13e000597b74200dd05960027039b97
:1038500007970193029704970897059b06979f4245
:1038600018dae36be26c934227d25a1ce2631e78ab
:10387000330002222b3b9343029a134335d1002f8e
:1038800027d0049bbb4224d0e36c002b02d0e36b17
:10389000013be3630023039a0699100053540aa9dd
:1038a00004f040f8099b039a186059600a9b0126ae
:1038b00093420bd10226764208e0200003f054f830
:1038c0000600431cd4d1069b002be3d130000db081
:1038d000f0bd019b1e702b6801332b600123029306
:1038e000019b013701330193b7e7089b002b0cd1f3
:1038f0002e2e0ad1049b002bc6d1019b1e702b6873
:1039000001332b6001230893eae7049b002b1ad1b3
:10391000079b3000002b12d003f0e4ff70384342c5
:103920005841c0b2002800d18ae0019b1e702b686c
:1039300001332b60002302937b1c0493d0e703f038
:10394000d1ff6538ebe7079b3000002b46d003f032
:10395000cbfe43425841c0b200286bd0e36c002b31
:1039600002d0e36b013be363029b9f4200d091e7ef
:10397000ba1c404b0792059ab91c0a938a4200dc94
:1039800088e704330b93fb1c059301235b420197eb
:103990000293019be26c0493e36b934224d25a1c82
:1039a000e2631e78029b3000013324d103f09affba
:1039b0000600692839d06e283ad0079b019a9342b5
:1039c0002ddb049b013b04939f4200dd62e7e36c27
:1039d000002bf6d0e36b013be363f2e709233038b9
:1039e000834280414042b7e7200002f0bdff06005d
:1039f000431cd7d14ee703f075ff029b0aa99a003a
:103a0000019b5258db1bd35c9842d6d1019a039b91
:103a10009e541300059a013301939342b9d1fb1cc4
:103a200006932b6803332b6034e700230293ede702
:103a30000123fbe7019b1e702b6801332b604fe7ce
:103a4000029b0133bb4200d07de7300003f04aff08
:103a5000782800d077e7019b013b1b78302b00d002
:103a600071e7019b1e702b6801332b6001230793c4
:083a700036e7c046367900007c
:020000040000fa
:103a7800f0b5c6464b000d000a005b0d6449013bda
:103a880000b5040006008b4200d99de0614b9d42c1
:103a980000ddb1e000d1abe05f4b9a4200d984e091
:103aa80000d17ee05d4a6b005b08934200d882e05b
:103ab800eb0f5b4adb075a4017000026594a5a4b5e
:103ac8002000290000f076fd32003b0000f09afb50
:103ad80003f03afc804603f0cbfd0022534b06006e
:103ae8000f0000f067fd22002b0000f08bfb504a0e
:103af80004000d004f4b3000390000f05bfd020060
:103b08000b002000290000f07dfb02000b000600de
:103b18000f0000f04ffd04000d00474a474b00f02e
:103b280049fd474a474b00f06dfb22002b0000f08f
:103b380041fd0022444b00f065fb32003b0000f0e1
:103b480039fd424a06000f00414b2000290000f0d1
:103b580031fd404a404b00f055fb22002b0000f09d
:103b680029fd320004000d003b0000202c4903f021
:103b78007dfe02000b002000290000f043fb4446b4
:103b880002000b003000390001f03afe0134002237
:103b9800234b00f037fb220002f0baff04bc90462a
:103ba800f0bd2e4b9e4200d87ce722222c4b0020f1
:103bb8001a600021f2e7934203d12a4b9e4200d9b2
:103bc80076e700202849e9e7290000196941274bd1
:103bd800994219d816d0002e00d069e7244b9a4292
:103be80012d0244b9a4200d062e700200021d5e78a
:103bf800214b984200d84fe72222194b00201a6027
:103c08001b49cbe70028e6d020002900c6e7c046bc
:103c1800fd070000422e86402b2386c0a19cc73b8f
:103c28000000e03f3cf92f9e2c15f73f0030e6bf1f
:103c3800a80c615c10d02b3f1cdc586fa452f13edd
:103c4800e0f6b36fe4707c3f0000d03f0938de6fc8
:103c5800993f403fb35142718e71ac3fd2bc7add7f
:103c6800cc0500202242920c0000f03f0000e0ff4b
:0c3c78000000f07f0000f0ffef39fafec2
:020000040000fa
:103c8400f0b54f464646d646c0b599461f005b0080
:103c9400160090465b0d654a013b82b004000d009e
:103ca400934255d84b005b0d013b8a4693424fd853
:103cb4004b005b08009001937b0059084046009a32
:103cc400019b03f03efa00280dd022002b003000a7
:103cd400390001f097fd4b005908554a554b03f044
:103ce40030fa00282ad132003b002000290001f0dc
:103cf40089fd00f0a3f9002204000d000023300028
:103d0400390003f01efa002807d12000290002b070
:103d14001cbc90469946a246f0bd00220023200018
:103d2400290003f0eff9444a00280fd0434b200048
:103d3400290000f069fa04000d00e6e75346db0fa2
:103d44003f4adb075a403c4c1500dee73d4beee7ab
:103d540032003b0092197b413b498b4228d825d045
:103d640022002b0012196b4137482100aa468342d6
:103d7400cbd83bd06b005b0800910193002924d081
:103d8400002200232000290003f05cfb002812d14c
:103d94004346002b43d0002200233000390003f0b7
:103da40051fb002800d187e7eb0fc9e7002ad7d0e1
:103db40034003d00a9e7002f2bda1f49214aeb0ffd
:103dc400db0753400c001d009fe7204a019b9342f0
:103dd400d6d14146ed0f7b00ed075b08002908d0e2
:103de4001749154a694014000d008ee7002ac1d016
:103df4008be79342f4d1002200233000390003f012
:103e0400a0f9002808d10c481149694004000d00ac
:103e14007be700210022d2e70e480f49f5e70b4b60
:103e24009945f6d00d4b9945b5d1c6e7fd0700007d
:103e34002342920ca19cc73b182d4454fb2109c07a
:103e4400fb21f93ffb2109400000e0ff0000f07f67
:103e5400fb21e93fd221337f7cd902400000f0ffef
:020000040000fa
:103e6400f0b5ce46474680b50b0d644a013b89b098
:103e74000c00934215d902000b0012184b41150097
:103e84005f4a934208d800d1b3e05e4a934200d817
:103e9400a9e0002c00daa0e009b00cbc90469946d9
:103ea400f0bd07aa03f0aef8079b05009946564bf0
:103eb4000c0099426fdd554b00222800210003f0cd
:103ec400d7fc012206000f0052422800210002f014
:103ed40021fe00224e4b00f097f902000b00300047
:103ee400390001f08ffc04000d0022002b0020009b
:103ef400290000f061fb474b060098460f000200c2
:103f04000b004046022101f0adfb43461033009004
:103f140001913200180003213b0002f053f9029092
:103f24000391484603f0a6fb3b4a04900591009890
:103f340001993a4b03f09cfc029a039b01f062fc4a
:103f440032003b0000f038fb22002b0000f034fb71
:103f540022002b0000f058f9049e059f04000d0078
:103f64002f4a304b3000390000f026fb02000b00d2
:103f74002000290000f048f9002204000d002a4b1b
:103f84003000390000f018fb02000b00200029006b
:103f940000f03af980e7994202d1244b98428ad83a
:103fa40001235b429c460022194b28002100e14476
:103fb40003f05efc0122524204000d0002f0aafd4f
:103fc4000022134b00f020f902000b00200029000e
:103fd40001f018fc04000d0087e72122144b002097
:103fe4001a60144958e72222114b00201a60124922
:103ff40052e7002d00d148e74ee7c046fd07000018
:104004000000e0ffffff1f009ea0e63f0000f03f1e
:104014000000e03fb07500009ab5b312ff075040ae
:10402400a80c615c10d02bbf0030e63fcd3b7f660f
:0c403400cc0500200000f87f0000f0ff29
:020000040000fa
:10404000f0b54646884641464f46d64649004b089d
:10405000c0b5020006001f00b6185f415f4982b07c
:1040600004001d008f4200d9b5e000d1b0e05c49ea
:104070008b4242d922002b000020594901f0c4fb99
:104080000d000b0003218a46013989465549040079
:1040900002008b423cdc8b4202d153498a4237d822
:1040a0001100524a5b005b0893425cd8934202d1f4
:1040b0004f4b994257d84b46012b00dc84e08021be
:1040c00009066b181d004b464a4adb00d318200036
:1040d0001a685b68290000f099f804000d00434657
:1040e000d90fc907694022000b001000190002b067
:1040f0001cbc90469946a246f0bd8b4201d1002ad5
:10410000b8d101218a460021894636498b42c2dd59
:10411000394a3a4b2000290000f050fa0022384b6f
:1041200003f0a8fb0022364b03f0a4fb22002b0077
:1041300000f06cf8334a06000f00334b20002900d2
:1041400000f064f802000b003000390001f05cfb65
:1041500002000b000d001100244a5b000400d14650
:104160005b089342a2d922002b002000290000f016
:1041700025fa204b060018009a460f000b0032006b
:104180002030042101f070fa534640330090019131
:104190003200180004213b0002f016f802000b0068
:1041a0000098019901f030fb22002b0000f006fa84
:1041b0000b0002002900200000f028f84b46040004
:1041c0000d00012b00dd7ae7002b00d187e77ae7ad
:1041d000002e00d14be70200434686e70000e0ffd7
:1041e0000000f03f1426d13f58cd9e5edf7cdb3dc2
:1041f000bbbdd7d9906700005499b0d0f56ce73fac
:0c4200000000e03faa4c58e87ab6fb3ff3
:020000040000fa
:10420c00f0b40125ed070f005f405ad48b4200d16a
:10421c00824205d950404240504059404b40594091
:10422c004e18760ddf187f0d3bd0741c640529d019
:10423c00f41b352c26d80e0ddb022b43db0ac902ee
:10424c002943c9121700202c1ed2e741e2405740e7
:10425c00e3415a40a340e3405a400024801859419e
:10426c000ad3b21c520521d0c207012f624117009c
:10427c004008cb0718434908013636054208af41c0
:10428c0060417141f0bc7047203c06d01f00e741f3
:10429c00e3405f400024012a6741c0186141ebd321
:1042ac00dfe7002eeed129400020ebe70136310587
:1042bc000020e7e7e742e5d10020c143090dc9041e
:1042cc00e0e76b400e00871a9e4104d26e40c01b83
:1042dc00b141d21973414e18df18ac0ae642e9d24b
:1042ec00760d7f0d31d0f41b362ccbd8b4460e0d89
:1042fc00db022b43db0ac9022943c90a012c32d841
:10430c0004d1d4075208df073a435b08ef0a644232
:10431c00904199411ed0002239424dd1241940417f
:10432c0049410124394204d1013400184941394230
:10433c00fad06246a24204d9361b013e36058919d1
:10434c00a0e7f10ac90700209ce736429ad1002069
:10435c00002197e70200224394d0b842ded201003c
:10436c0020002024e3d1202c13dd203ce241170057
:10437c00a240e2405740e3415a40a340e3405a4038
:10438c00012fbf410137174300227c4298419141d4
:10439c000ce01700e741e2405740e3415a40a3408c
:1043ac00e3405a407c429041994100220f0303d2d2
:1043bc00013e241940414941013e36054708ac41b4
:0843cc0050417141f0bc704743
:020000040000fa
:1043d40010b5694b9b7d002b17d0674b5b8b9b07fc
:1043e40014d5664b2022ff2199540132fd3999548a
:1043f400624a2023d35c5bb2013300d18be05f4a75
:104404002023d35c062b00d19de010bd5a4b5b8b5f
:10441400db0707d5594b2022ff2199540132fd397e
:104424009954e5e7544b5b8b5b0707d5534b20222c
:10443400ff2199540132fe399954d9e74f4a202378
:10444400d35c5bb2032b44d0042b0fd0022bcfd10f
:104454001369002b04d09088002102f0ddfac7e72d
:10446400464b9888012102f0d7fac1e7434a936981
:10447400126993420cd0414a9168cc5c3e48282191
:104484004454013393610200d369002bfcd1afe79c
:104494003a4b5b69002b0ed0384b9b885b000122a2
:1044a4001343354a5362d369002bfcd1334a20337a
:1044b4000321d1549ce7304a5168c0239b020b432b
:1044c4005360d369002bfcd12c4a20330621d154ec
:1044d4008ee72a4a5369013bd2699a420dd0264a93
:1044e400d369002bfcd1254ad36923482821415c98
:1044f400d068c1540133d3617ae71f4a5168e0237d
:10450400db020b435360d369002bfcd11b4a2033dd
:104514000621d154e3e720230021d154164a5168df
:10452400c0239b020b435360d369002bfcd1124b75
:1045340083221a76114b5b6a002b00d165e70f4a80
:10454400906a984761e71300002220215a540131f0
:104554005a54094b83321a761900533a4b8b134041
:10456400102bfbd1054b5b6a002b00d14de7034aae
:10457400906a984749e7c046000400423405002089
:020000040000fa
:1045840008d1002806d1f54204d801d3002a01d16c
:104594006d0d09d10020c143090dc904f0bdf9d145
:1045a4001242f7d1640df5d00020c14349054908f2
:1045b400a6e000206146f0bdf0b50127ff070e001c
:1045c4005e403e40b446be0a4c18dd18f442d7d2d1
:1045d400f542e4d2640decd06d0dead06419c90241
:1045e4003943460dc0023143db023b43db0a10b4be
:1045f4008e4685b297b26f43140c6c433e0ca419db
:10460400260c2404bfb227439cb26c43a419190c92
:104614006943250ca4b249190d04090c6419000c52
:1046240095b245433e0c76193743bfb2360c150c90
:104634004543ad19a6b2240cad192e0437432e0cf4
:1046440036199db24543ad19acb22e0c89191d0c17
:1046540045436d182e04290c3443704680b295b23c
:1046640045433e0c76193743bfb2360c150c45430f
:10467400ad19a6b2ad19240c2e0437432e0c3619ed
:104684009db24543ad19acb22e0c89191d0c45439e
:104694006d182e043443290c75462d0c90b26843d2
:1046a4003e0c80190604bfb23e43070ca0b23f186b
:1046b400120c6a43d019020c80b2240ca4189ab2ca
:1046c4006a43121914042043120c89181b0c6b43ff
:1046d400c91810bc01273d05294203d1b619404130
:1046e4004941013cff077d0d013d641b0bdb6d005f
:1046f400ac4209da240500254208be416841614103
:0a47040066463143f0bd54e74ee76e
:020000040000fa
:02470e00fee7c4
:020000040000fa
:10471000f0b5c64600b5574b9b7d002b17d0554ac8
:10472000137edbb2927d52b2002a13db514a137e14
:10473000dbb2927dd20702d5db0700d582e04d4a7d
:10474000137edbb2927d520701d55b074bd404bccc
:104750009046f0bd5bb2002be8da464b5b8b07223c
:104760001340e3d0444ce38502f0cafe414b84225f
:104770001a752c230022e254636a002bd6d03e4add
:10478000906a9847d2e7bb68f35c0b859368013366
:104790009360936898460b7e23420bd0404509d91d
:1047a0004b682b40012beed163469b685b009b5b03
:1047b0000b85ebe7304b9a685b689a42bfd32e4b70
:1047c00000221a755a602b4a01211175db68002bf3
:1047d000b5d0294a10699847b1e727490a6a89691b
:1047e0005200535215e0244a2c23d35c002baed048
:1047f000214b1a6adb699a42a9d21e4a138d9bb2d9
:10480000516807220a40012ae7d01b4a116a9269bf
:104810005354194b1a6a01321a621a6adb699a42b6
:1048200000d094e7144b00222c215a54da61114a2b
:10483000583111755b6a002b00d188e70e4a906ae7
:10484000984784e70c4b1b7d002b00d177e70a4b80
:104850009a685868074b1b7edb07abd58242a9d20a
:10486000054b1e68034907259c461f001a000124ba
:0c48700096e7c04600100042a40400209f
:020000040000fa
:10487c00f0b5c64600b5574b9b7d002b17d0554a5b
:10488c00137edbb2927d52b2002a13db514a137ea7
:10489c00dbb2927dd20702d5db0700d582e04d4a10
:1048ac00137edbb2927d520701d55b074bd404bc5f
:1048bc009046f0bd5bb2002be8da464b5b8b0722cf
:1048cc001340e3d0444ce38502f02afe414b842292
:1048dc001a752c230022e254636a002bd6d03e4a70
:1048ec00906a9847d2e7bb68f35c0b8593680133f9
:1048fc009360936898460b7e23420bd0404509d9b0
:10490c004b682b40012beed163469b685b009b5b95
:10491c000b85ebe7304b9a685b689a42bfd32e4b02
:10492c0000221a755a602b4a01211175db68002b85
:10493c00b5d0294a10699847b1e727490a6a8969ad
:10494c005200535215e0244a2c23d35c002baed0da
:10495c00214b1a6adb699a42a9d21e4a138d9bb26b
:10496c00516807220a40012ae7d01b4a116a926952
:10497c005354194b1a6a01321a621a6adb699a4249
:10498c0000d094e7144b00222c215a54da61114abe
:10499c00583111755b6a002b00d188e70e4a906a7a
:1049ac00984784e70c4b1b7d002b00d177e70a4b13
:1049bc009a685868074b1b7edb07abd58242a9d29d
:1049cc00054b1e68034907259c461f001a0001244d
:0c49dc0096e7c046000c0042d404002006
:020000040000fa
:1049e800f0b5c64600b5574b9b7d002b17d0554aee
:1049f800137edbb2927d52b2002a13db514a137e3a
:104a0800dbb2927dd20702d5db0700d582e04d4aa2
:104a1800137edbb2927d520701d55b074bd404bcf1
:104a28009046f0bd5bb2002be8da464b5b8b072261
:104a38001340e3d0444ce38502f08afd414b8422c5
:104a48001a752c230022e254636a002bd6d03e4a02
:104a5800906a9847d2e7bb68f35c0b85936801338b
:104a68009360936898460b7e23420bd0404509d942
:104a78004b682b40012beed163469b685b009b5b28
:104a88000b85ebe7304b9a685b689a42bfd32e4b95
:104a980000221a755a602b4a01211175db68002b18
:104aa800b5d0294a10699847b1e727490a6a896940
:104ab8005200535215e0244a2c23d35c002baed06d
:104ac800214b1a6adb699a42a9d21e4a138d9bb2fe
:104ad800516807220a40012ae7d01b4a116a9269e5
:104ae8005354194b1a6a01321a621a6adb699a42dc
:104af80000d094e7144b00222c215a54da61114a51
:104b0800583111755b6a002b00d188e70e4a906a0c
:104b1800984784e70c4b1b7d002b00d177e70a4ba5
:104b28009a685868074b1b7edb07abd58242a9d22f
:104b3800054b1e68034907259c461f001a000124df
:0c4b480096e7c04600080042040500206b
:020000040000fa
:104b5400f0b5c36bc26c85b004000e00934232d230
:104b64005a1cc2631d782b0002222b3b9343002264
:104b74000192934216d12d3d6b426b41e26c01933d
:104b8400e36b934223d25a1ce2631d782b00303b23
:104b9400092b07d9002e05d0e36c002b02d0e36b60
:104ba400013be363002300932b00303b0a27092bce
:104bb40012d9e36c002b02d0e36b013be363802743
:104bc40000263f062de001f0cdfe0500cbe72000d6
:104bd40001f0c8fe0500d9e7009ee36b7e43e26c5a
:104be4007519303d009593421fd25a1ce2631d781b
:104bf4002b00303b092b03d82b4b009a9a42ebdd58
:104c0400009ef7172b00303b092b32d9e36c002ba5
:104c140046d1019b002b04d033003c0000275e42a8
:104c2400a7413000390005b0f0bd200001f09afe24
:104c34000500dde70a2200233000390002f09ef966
:104c4400eb1702950393029a039b30267642f717db
:104c540080185941e36be26c36184f41934203d2fa
:104c64005a1ce2631d78cde7200001f07bfe0500ad
:104c7400c8e70e4b9f4203dcdcd10d4b9e42d9d9d1
:104c8400303d092dc2d8e36be26c934203d25a1c27
:104c9400e2631d78f4e7200001f064fe0500efe70d
:104ca400e36b013be363b4e7cbcccc0c14ae47011c
:044cb400ad47e17aad
:020000040000fa
:104cb800f0b51f00936889b0039313690400049347
:104cc800d3680591019302f059fa3b681818039bc1
:104cd8003860002b02d1049b013b03930a23009305
:104ce80000231e000293039b9e4241da049b013b72
:104cf800b3423ddde36be26c93420fd25a1ce26390
:104d08001d782b0002222b3b9343334311d1019b87
:104d18001d703b6801333b600123e2e7200001f08e
:104d28001ffe0500431cecd1002e21d1280009b03c
:104d3800f0bd029b9e4209d1731c0293009b0a2b73
:104d48002cd1023b302d54d0002302932b00303b52
:104d5800092b48d9009b102b04d1280002f0c0fc75
:104d6800002847d1e36c002b02d0e36b013be363df
:104d78000023019a9355009b0a2b42d11a0007a9d8
:104d8800019802f03bfd059b019a18605960079b4a
:104d980001259342cad102256d42c7e7009b082b23
:104da800d2d118332b43782bced1e36be26c9342ec
:104db80015d25a1ce2631878e36c002b02d0e36b1f
:104dc800013be36302f08cfc0028cbd0019b9d558e
:104dd8003b68013601333b601023009383e72000d2
:104de80001f0befde8e7009b082b03d1372d01dd5c
:104df80002330093019b9d553b68013601333b60ac
:0e4e080071e7009a07a9019802f0eefcbbe7e3
:020000040000fa
:024e1600fee7b5
:020000040000fa
:104e1800f0b589b006000f001098119902f026fd30
:104e2800424a434bfff7c6fb0022424b00f0e8fc26
:104e380004000d003d4a3e4b30003900fff7bafb35
:104e480000223c4b00f0dcfc06000f00374a384bd0
:104e58000e980f99fff7aefb0022364b00f0d0fcfe
:104e6800029003912000290000f068f80490059151
:104e78000298039900f0f2f80090019106960797be
:104e88003000390000f05af806000f002000290011
:104e980000f0e4f804000d0032003b00009801998e
:104ea800fff788fb22002b00fff784fb06000f00aa
:104eb8000698079900f0d2f804000d0002980399ab
:104ec80000f03cf802000b0020002900fff772fbfd
:104ed80032003b0002f0cafc04000d00009a019b5e
:104ee80004980599fff766fb22002b00fef7c6fe23
:104ef80004000d000022002302f021f900280bd144
:104f080000220c4b20002900fff754fb074a084bee
:104f180000f076fc09b0f0bd044a074b20002900d8
:104f2800fff770f904000d00eae7c046182d445455
:0c4f3800fb21094000806640fb2119406d
:020000040000fa
:104f440002000b00f0b583b0009201934b005d08a2
:104f5400374a5b0d013b06000f000400934250d812
:104f6400344a354b2900fff727fb344b0022fff767
:104f74004bf902f0ebf9c3071ed4002820d122001c
:104f84002b0020002900fff717fb02000b002c4820
:104f9400082100f067fb02000b0020002900fff746
:104fa4000bfb2b002200fff72ff9019bdb0fdb0724
:104fb4004b40190003b0f0bd802109067b181f0087
:104fc40002f058fb00221f4b00900191fff7f4fa06
:104fd40002000b002000290002f04afc1a4a0400d7
:104fe4000d0000980199194bfff7e6fa02000b0037
:104ff40020002900fff708f90096019704000d002e
:10500400bde700280cd00098019900184941104bc5
:10501400994202d830003900cce700200d49c9e795
:105024000d4b9d42efd121220c4b1a60ebe7c04699
:10503400fd07000083c8c96d305fd43f0000e03f26
:10504400c86f0000002209409ee59e4befaee23e91
:10505400ffffdfff0000f87f0000f07fcc05002099
:020000040000fa
:10506400f0b5c6464b005f08364a5b0d013b00b500
:105074000600934252d8344a344b3900fff7c4f83f
:10508400334a344bfff798fa0022334bfff7bcf84e
:1050940002f05cf9804602f0edfa00222e4b02f099
:1050a400e7fb00222d4b04000d00fff785fa0200f8
:1050b4000b003000390002f0dbfb294a06000f0028
:1050c400284b20002900fff777fa02000b0030007c
:1050d4003900fff799f802000b0004000d00fff7f8
:1050e4006bfa02000b002048082100f0bbfa020012
:1050f4000b0020002900fff75ffa22002b00fff7c6
:1051040083f8030040460a00c00702d58022120635
:105114008a181800110004bc9046f0bd00280ad07b
:1051240000184941114b994202d80023104af0e774
:105134000023104aede7104b9f42f1d121220f4b7f
:105144001a60ede7fd070000182d4454fb21f93fd8
:1051540083c8c96d305fd43f0000e03f002209409e
:105164009ee59e4befaee23ec86f0000ffffdfffff
:105174000000f03f0000f87f0000f07fcc05002025
:020000040000fa
:1051840002000b00f0b5c64612184b4100b5374a71
:1051940082b0934260d9002964db354a93424fd8e8
:1051a40001aa01f02fff019b324a9846324b0400ba
:1051b4000d00fff701fa314a314bfff725f80600dd
:1051c4000f0002000b002000290000f01bfb3b0035
:1051d4003200fff719f80122524201f09bfc06004d
:1051e4000f0002000b002000290000f00bfb3b0025
:1051f4003200fff709f80122524201f08bfc06004d
:105204000f0002000b002000290000f0fbfa0b0045
:1052140002003900300002f02bfb0122524201f05f
:1052240079fc0b0002003900300002f021fb4346f8
:10523400db0709d44346da0f4244521001f06afcfa
:1052440002b004bc9046f0bd0e4b0f4afff7b4f910
:1052540001239c46e044ede70022c90fcb07100070
:105264001900ede700200949eae7c046ffff1f00e7
:10527400ffffdfff18096d3997e2e23ff7cc920098
:1052840035b5da3f9ea0e63fcd3b7f660000f87f50
:020000040000fa
:10529400000102040703060500fffffffffffffff5
:1052a400ffffffffffffffffffffffffffffffff0a
:1052b400fffffffffffffffffffffffffffffffffa
:1052c400ffffffffffffffffffff000102030405d5
:1052d40006070809ffffffffffffff0a0b0c0d0e77
:1052e4000f101112131415161718191a1b1c1d1e52
:1052f4001f20212223ffffffffffff0a0b0c0d0ecf
:105304000f101112131415161718191a1b1c1d1e31
:105314001f20212223ffffffffffffffffffffffef
:10532400ffffffffffffffffffffffffffffffff89
:10533400ffffffffffffffffffffffffffffffff79
:10534400ffffffffffffffffffffffffffffffff69
:10535400ffffffffffffffffffffffffffffffff59
:10536400ffffffffffffffffffffffffffffffff49
:10537400ffffffffffffffffffffffffffffffff39
:10538400ffffffffffffffffffffffffffffffff29
:0a539400ffffffffffffffffffff19
:020000040000fa
:02539e00fee728
:020000040000fa
:1053a000f0b587b0002900dc68e00830060009018c
:1053b0000d1800240022002302920393009201930f
:1053c00038e0306802f058f904900591380002f096
:1053d00053f900222c4b00f017fa02000b000020ba
:1053e0002949fcf7fbfe02000b0004980599fff722
:1053f000e5f802000b0000980199fef707ff009006
:105400000191706802f038f900221f4b00f0fcf99e
:1054100002000b0000201c49fcf7e0fe02000b001c
:1054200002980399fef7f2fe0290039101341036c0
:10543000b54203d07768092ff9ddc2e7002c20d0f0
:10544000029a039b0098019900f0def900220f4bad
:10545000fef7dcfe00240d4d22002b00fef752f873
:105460000b4a0c4bfef7d2fe22002b00fef7cefebd
:1054700022002b00fef746f807b0f0bd00200649d9
:10548000fae700200449f7e7000024400080764056
:0c54900033333333333314400000f0bfdb
:020000040000fa
:10549c00f0b51f00936887b0019313690400029361
:1054ac00d3680391009301f067fe3b681818019bc9
:1054bc003860002b02d1029b013b01930026019b1b
:1054cc009e4231da029b013bb3422ddde36be26c71
:1054dc0093423cd25a1ce2631d78280002f0fef87d
:1054ec00002843d1012e19d1280002f0f5f97828b3
:1054fc0014d1009b1b78302b10d1e36be26c9342e0
:10550c0030d25a1ce2631878e36c002b02d0e36ba8
:10551c00013be36302f0e2f8002827d1e36c002b97
:10552c0002d0e36b013be3630023009a05a993557a
:10553c000098102202f056f9039b009a18605960eb
:10554c00059b012593420ad102256d4207e02000fc
:10555c0001f004fa0500431cbfd1002ee4d1280051
:10556c0007b0f0bd200001f0f9f9cde7009b9d5587
:0a557c003b68013601333b60a1e7f4
:020000040000fa
:10558600f0b5060085b00f0015001c008b4265d8eb
:1055960001d1824262d82100280002f0eef83900db
:1055a6000090300002f0e9f8009b21001b1a1a0057
:1055b6002800039302f0d5f800900191019bbb42ad
:1055c60046d802d1009bb34242d8009b019c039a65
:1055d60001200021f61aa74102f0c3f8039b002b15
:1055e6002fd0019b009adb0754081c43019b5d08e2
:1055f600039b9c46bd422ed801d1b4422bd8320023
:105606003b00121bab41012692185b410027b618de
:105616005f4101235b429c446346002bead180191b
:105626007941039a04000d003000390002f08df82c
:10563600039a06000f0002f094f8241a8d41200008
:1056460029000a9b002b01d01e605f6005b0f0bdeb
:1056560000200021c2e7b6197f41dae700200021c9
:02566600efe76c
:020000040000fa
:10566800f8b514001d008e1ef60086190f00b268ea
:10567800f36820002900fef79dff32687368fef783
:10568800c1fd022f4ed002000b0020002900fef7ba
:1056980091ff3300083b1a685b68fef7b3fd032fe0
:1056a80040d022002b00fef785ff3300103b1a681c
:1056b8005b68fef7a7fd042f34d002000b00200022
:1056c8002900fef777ff3300183b1a685b68fef77e
:1056d80099fd052f26d002000b0020002900fef7b7
:1056e80069ff3300203b1a685b68fef78bfd062fc5
:1056f80018d002000b0020002900fef75bff3300e2
:10570800283b1a685b68fef77dfd072f0ad0020068
:105718000b00303e20002900fef74cff326873680a
:10572800fef770fd02000b0020002900fef742ff83
:04573800f8bdc046b2
:020000040000fa
:10573c002b4b5a6852031b68db0c13439b029b0ace
:10574c00284a936300235375110004228b691a4273
:10575c00fcd124491022cb681a42fcd0224b0022e7
:10576c009a611a61214b224a1a62190004224b6871
:10577c001a42fcd11d4acc234021d15010008c314f
:10578c00402243581a42fcd0184ad0234021d15011
:10579c0010009031402243581a42fcd0134ad423b3
:1057ac004021d15010009431402243581a42fcd071
:1057bc000e4ad8234021d150100098314022435832
:1057cc001a42fcd0094ae4234021d1501000a431e4
:1057dc00402243581a42fcd0064b074ada61704704
:1057ec00206080000010004000140040001c0040ad
:0c57fc0006010100000800401e30000003
:020000040000fa
:10580800f0b40125ed070c005c402c40a446ae0a1c
:105818004c18df18f4423dd2f74245d2640d4cd003
:105828007f0d3cd0e41bc9022943cf0adb022b437e
:10583800db0a0600b61a9f4104d2013cb6197f4123
:10584800b6185f416812800d241838dd00188442ac
:1058580025d8e80c0021b6197f41b61a9f4103d319
:1058680040414941f7d304e0b6185f410018494167
:10587800f1d32405b6197f41b61a9f4105d33743a2
:10588800c20717430022012f50416141624611436c
:10589800f0bc70470cd100280ad1f74208d200208a
:1058a800c143490d0905f1e7002a01d1f74206d0a5
:1058b8000020c143090dc904eae77f0df8d0002094
:0458c8006146e5e769
:020000040000fa
:1058cc0010b588293cd015dc81294dd003dc80290a
:1058dc004ad0002010bd822911d08429f9d1196831
:1058ec00002a26d00a1d1a6000228b5e0360db178b
:1058fc00436011e0a02930d010dc9029e9d119685f
:10590c000724002a2ed00919a1430a0008321a6074
:10591c000b684c68036044600120dbe7c02901d0b0
:10592c00f029d6d11a68111d196013680360002381
:10593c00dee70c1d1c600b689bb203604260ebe75a
:10594c001968002a04d00a1d1a600023cb56cde733
:10595c000c1d1c600b68dbb2efe71a68111d196097
:10596c001368c3e70731cfe71968002a03d00a1d73
:0e597c001a600b68bae70c1d1c600b68dde7b3
:020000040000fa
:02598a00704764
:020000040000fa
:10598c00f0b595b0284f294e35003c68200001f049
